:100000000C94F2000C940F010C940F010C940F014E
:100010000C940F010C940F010C940F010C940F0120
:100020000C940F010C940F010C940F010C940F0110
:100030000C940F010C940F010C940F010C940F0100
:100040000C942F070C940F010C940F010C940F01CA
:100050000C940F010C946B060C940F010C940F017F
:100060000C940F010C940F0107634236B79BD8A77D
:100070001A39685618AEBAAB558C1D3CB7CC5763CD
:10008000BD6DEDFD753EF6177231BF000000803F7B
:1000900008000000BE922449123EABAAAA2ABECD97
:1000A000CCCC4C3E00000080BEABAAAAAA3E000009
:1000B0000000BF000000803F000000000008417801
:1000C000D3BB4387D1133D190E3CC3BD4282AD2B38
:1000D0003E68EC8276BED98FE1A93E4C80EFFFBE30
:1000E00001C4FF7F3F000000000000407A10F35A77
:1000F00000A0724E18090010A5D4E80000E8764868
:10010000170000E40B54020000CA9A3B000000E113
:10011000F505000080969800000040420F000000A6
:10012000A08601000000102700000000E803000086
:1001300000006400000000000A0000000000010050
:10014000000000002C76D888DC674F0823DFC1DF71
:10015000AE59E1B1B796E5E3E453C63AE651997674
:1001600096E8E6C28426EB898C9B62ED407C6FFCAE
:10017000EFBC9C9F40F2BAA56FA5F490055A2AF7F0
:100180005C936B6CF9676DC11BFCE0E40D47FEF5F9
:1001900020E6B500D0ED902E030094357705008061
:1001A000841E080000204E0A000000C80C333333C0
:1001B000330F986E12831141EF8D2114893BE65560
:1001C00016CFFEE6DB18D1844B381BF77C1D901D43
:1001D000A4BBE424203284725E228100C9F124ECA5
:1001E000A1E53D2711241FBECFEFD8E0DEBFCDBF74
:1001F00012E0A0E0B1E0EAE5FCE102C005900D925A
:10020000AE37B107D9F722E0AEE7B2E001C01D92E8
:10021000AE3AB207E1F70E9450040C942B0E0C94F6
:100220000000EF92FF920F931F93CF93DF9300D0C4
:100230001F92CDB7DEB7E82EF92E0E94AF038CE0F7
:1002400091E00E94EE0361E080E00E94A5038BE153
:1002500091E00E94EE03299A0E2D1F2D0115110524
:10026000D9F061E08EE00E94A5034AE0BE016F5F15
:100270007F4FC8010E948D0BCE0101960E94EE03B4
:100280002FEF83ED90E3215080409040E1F700C0D4
:1002900000000150110929F70E94AF0329980F901F
:1002A0000F900F90DF91CF911F910F91FF90EF90E2
:1002B000089518161906ECF420E030E02898299AE1
:1002C0004FEF50E762E0415050406040E1F700C01E
:1002D0000000289A29984FEF57E863E141505040B9
:1002E0006040E1F700C000002F5F3F4F8217930787
:1002F00029F708950E94AF0389E291E00E94EE037E
:1003000061E080E00E94A50388E391E00E94EE0393
:100310002FEF87EA91E6215080409040E1F700C03E
:1003200000000E94AF0389E491E00E94EE0361E0C7
:1003300080E00E94A50381E591E00E94EE032FEF8B
:1003400087EA91E6215080409040E1F700C000002C
:100350000E94AF038DE591E00E94EE0361E080E032
:100360000E94A50381E691E00E94EE032FEF87EA49
:1003700091E6215080409040E1F700C000000895D0
:100380000E94AF0381E791E00E94EE0361E080E00C
:100390000E94A50382E891E00E94EE032FEF87EA16
:1003A00091E6215080409040E1F700C000000E949B
:1003B000AF0382E991E00E94EE0361E080E00E94D9
:1003C000A50383EA91E00E94EE032FEF87EA91E60E
:1003D000215080409040E1F700C000000E94AF0330
:1003E00082EB91E00E94EE0361E080E00E94A503B1
:1003F0008DEB91E00E94EE032FEF87EA91E621500A
:1004000080409040E1F700C000000E94AF038EECF6
:1004100091E00E94EE0361E080E00E94A5038FED71
:1004200091E00E94EE0308952FB7F894909189020D
:100430008923909189029827909389022FBF08956C
:100440008AB1837E8AB98BB18C618BB90895109281
:10045000B90088E48093B800089594EA9093BC00B2
:10046000ECEBF0E090819923ECF79091B900987F44
:10047000983011F09031A1F48093BB0084E8809310
:10048000BC00ECEBF0E080818823ECF79091B900A0
:10049000987F983139F081E0903429F480E0089514
:1004A00081E0089580E0089584E98093BC00ECEB3E
:1004B000F0E0808184FDFDCF08958093BB0084E847
:1004C0008093BC00ECEBF0E080818823ECF7909106
:1004D000B900987F81E0983209F480E0089584E8BB
:1004E0008093BC00ECEBF0E080818823ECF78091F6
:1004F000BB000895CF93882331F080917E02816004
:1005000080937E0205C080917E028E7F80937E0262
:1005100080917E02826080937E0260917E0280E004
:100520000E94690762E080E00E94AA0700C064E0C0
:1005300080E00E94C307811102C0C0E101C0C0E099
:1005400065E080E00E94C307811101C0C06266E0DF
:1005500080E00E94C307811101C0C06467E080E0B1
:100560000E94C307811101C0C06862E080E00E9460
:10057000AE0700C062E080E00E94AA0700C064E00D
:1005800080E00E94C307811101C0C16065E080E086
:100590000E94C307811101C0C26066E080E00E9432
:1005A000C307811101C0C46067E080E00E94C307F7
:1005B000811101C0C86062E080E00E94AE078C2F0C
:1005C000CF91089580E00E947A028823DCF388E0CE
:1005D00090E00197F1F780E00E947A02089562E0CE
:1005E00080E00E94AA0700C062E080E00E94AE079F
:1005F0000895CF93C82F662331F080917E028160E9
:1006000080937E0205C080917E028E7F80937E0261
:1006100080917E028D7F80937E0260917E0280E0D9
:100620000E94690780917E028F7780937E0280917D
:100630007E028F7B80937E0280917E028F7D8093ED
:100640007E0280917E028F7E80937E02CC232CF4EA
:1006500080917E02806880937E02C6FF05C08091F3
:100660007E02806480937E02C5FF05C080917E0279
:10067000806280937E02C4FF05C080917E0280610B
:1006800080937E0260917E0280E00E9469070E9452
:10069000EF0280917E028F7780937E0280917E02AE
:1006A0008F7B80937E0280917E028F7D80937E027D
:1006B00080917E028F7E80937E02C3FF05C0809171
:1006C0007E02806880937E02C2FF05C080917E0218
:1006D000806480937E02C1FF05C080917E028062AB
:1006E00080937E02C0FF05C080917E02806180936E
:1006F0007E0260917E0280E00E9469070E94EF0204
:1007000080917E02806180937E0280917E02806271
:1007100080937E0280917E02806480937E0280912D
:100720007E02806880937E0260917E0280E00E945B
:100730006907CF910895CF93C82F0E94E20260E02D
:100740008C2F0E94F902CF910895611104C0805846
:100750000E949B03089580540E949B03089581E0AA
:100760000E949B030895882331F080917E02877F49
:1007700080937E0205C080917E02886080937E0215
:1007800060917E0280E00E946907089582E00E94E5
:100790009B030895CF93C82F0E94E202CA3049F408
:1007A000803410F080E001C080E480580E949B03F8
:1007B00013C0803129F460E080EC0E94F90206C089
:1007C000803521F460E080E80E94F9020E94E20294
:1007D00061E08C2F0E94F902CF910895CF93DF93AF
:1007E000EC012196FC018081882329F00E94CA0334
:1007F00089918111FBCFDF91CF9108951F93CF9302
:10080000DF93182F0E94600710927E0260917E0293
:1008100080E00E94690780E09AEF0197F1F78091EC
:100820007E02806280937E0280917E02806180934E
:100830007E0260917E0280E00E9469070E94EF02C2
:1008400080E09EE40197F1F70E94EF02C0E0D1E062
:10085000CE010197F1F70E94EF02CE010197F1F767
:1008600080917E028F7E80937E0260917E0280E086
:100870000E9469070E94EF022197F1F788E20E9427
:100880009B0388E00E949B030E94AF0386E00E94C6
:100890009B03812F0E949B03DF91CF911F910895AD
:1008A000209A219A289A299885B5846085BDEEE61C
:1008B000F0E08081816080830E9420028CE00E94B1
:1008C000FE030E94C60380E00E94B3030E947A01E7
:1008D00080910601909107010E941101EAE7F0E082
:1008E000808187608083ACE7B0E08C918C938C91A1
:1008F00080648C938081886080838081806880831D
:100900000E94C00178940F2EF0E78F2E982CF02DC6
:100910000F2EF4E0AF2EF1E0BF2EF02D0F2EFDE6EE
:10092000CF2ED12CF02D0F2EFAE7EF2EF12CF02D3B
:1009300084E00E941402882309F4CEC080918402CE
:1009400090918502A0918602B091870280938002E7
:1009500090938102A0938202B09383020E94AF031E
:100960008FEE91E00E94EE0361E080E00E94A5031B
:1009700080E092E00E94EE03C5E38C2F0E94CA0340
:100980008CE092E00E94EE03299A61E08BE00E94E5
:10099000A5032FEF33ED80E3215030408040E1F795
:1009A00000C00000F70180818064808320918E0266
:1009B00030918F0240919002509191026091840297
:1009C0007091850280918602909187020E94DD07D6
:1009D00060938402709385028093860290938702CD
:1009E000C150C03351F620E030E040EA50E40E94AC
:1009F00049086093840270938502809386029093E5
:100A00008702299860918402709185028091860204
:100A1000909187020AE912E022E042E00E94640B12
:100A20000E94AF0381E192E00E94EE0361E080E06A
:100A30000E94A50382E292E00E94EE0361E088E05A
:100A40000E94A503C8010E94EE0382E091E00E948B
:100A5000EE03409084025090850260908602709070
:100A600087022DEC3CEC4CE45EE3C301B2010E9432
:100A70004909181644F46BE272E082E091E00E94AA
:100A8000840B892B91F02DEC3CEC4CEC5DE3C30125
:100A9000B2010E94490918166CF46FE272E082E01C
:100AA00091E00E94840B892B29F485E090E00E945C
:100AB000590104C081E090E00E945901FFEF23E258
:100AC00034EF80E0F150204030408040D9F700C042
:100AD00000000E94C0012CCF88E00E9414028823ED
:100AE00009F459C00E94AF0384E392E00E94EE0330
:100AF00060918402709185028091860290918702B4
:100B00000AE912E022E042E00E94640B61E080E02A
:100B10000E94A50386E492E00E94EE03C8010E94B1
:100B2000EE0382E091E00E94EE039FEFEBE7F2E933
:100B30009150E040F040E1F700C000000E94AF0398
:100B400084E392E00E94EE03609180027091810242
:100B5000809182029091830222E042E00E94640B25
:100B600061E080E00E94A5038BE492E00E94EE0326
:100B7000C8010E94EE0382E091E00E94EE032FEF95
:100B80003BE782E9215030408040E1F700C000009F
:100B90000E94C001CDCE80E10E941402882309F496
:100BA000C7CE6BE272E082E091E00E94840B892B59
:100BB00009F044C085E0EFE2F2E0A2E0B1E001908C
:100BC0000D928A95E1F726E636E646E050E460911C
:100BD00080027091810280918202909183020E9432
:100BE00049086093800270938102809382029093FF
:100BF000830226E636E646E050E460918402709176
:100C0000850280918602909187020E944908609334
:100C100084027093850280938602909387020E94DB
:100C2000AF0380E592E00E94EE0361E080E00E9465
:100C3000A5038DE592E00E94EE0341C0909203016E
:100C400080920201F501D182C08226E636E646E0B6
:100C500050E46091800270918102809182029091B3
:100C600083020E944E0960938002709381028093F8
:100C700082029093830226E636E646E050E46091D5
:100C800084027091850280918602909187020E9471
:100C90004E0960938402709385028093860290933C
:100CA00087020E94AF0380E592E00E94EE0361E0BC
:100CB00080E00E94A5038BE692E00E94EE03FFEF26
:100CC0002BE732E9F15020403040E1F700C000004E
:100CD0000E94C0012DCE1F920F920FB60F921124C9
:100CE0008F929F92AF92BF92CF92DF92EF92FF923C
:100CF0002F933F934F935F936F937F938F939F9324
:100D0000AF93BF93EF93FF93F89460917800709145
:100D1000790080E090E00E94BB0820E030E040E8ED
:100D20005AE30E944E0920E030E040EA50E40E947D
:100D30004E094B015C016093AA027093AB02809351
:100D4000AC029093AD0260910A0170910B01072EE5
:100D5000000C880B990B0E94BD086B017C0120E000
:100D600030E040EA50E40E944E09A50194010E943F
:100D70004908A70196010E94DC076B017C01609382
:100D800092027093930280939402909395026091E3
:100D9000080170910901072E000C880B990B0E9425
:100DA000BD089B01AC01C701B6010E9449086093D0
:100DB00096027093970280939802909399022DEC7B
:100DC0003CEC4CEC5EE30E944E0960938A02709307
:100DD0008B0280938C0290938D0222E03BE247EBE2
:100DE0005FEB0E94BB096B017C0160938E027093E4
:100DF0008F02809390029093910268E772E082E004
:100E000091E00E94840B892B81F026E636E646E0CD
:100E100050E4C701B6010E944E0960938E027093A0
:100E20008F0280939002909391027894FF91EF91BA
:100E3000BF91AF919F918F917F916F915F914F91F2
:100E40003F912F91FF90EF90DF90CF90BF90AF90A8
:100E50009F908F900F900FBE0F901F9018951F922C
:100E60000F920FB60F9211242F933F938F939F935E
:100E700089B120917F028095382F3227909101010E
:100E80009323892F809580930101909100019323F2
:100E900098279093000183238923922F982790937A
:100EA0007F02209189028923822B809389029F915E
:100EB0008F913F912F910F900FBE0F901F9018951B
:100EC0000E94270285E38A95F1F7000010928802BC
:100ED0000895CF9381110DC0C62F609388028EE4D0
:100EE0000E942D028C2F0E945D020E94540280E01D
:100EF00001C08FEFCF910895CF93DF93811124C06C
:100F0000683020F580918802442349F0C1E0D0E0A8
:100F100002C0CC0FDD1F6A95E2F7C82B09C0C1E003
:100F2000D0E002C0CC0FDD1F6A95E2F7C095C82360
:100F3000C09388028EE40E942D028C2F0E945D02D5
:100F40000E94540280E003C08FEF01C08FEFDF9159
:100F5000CF91089541E00E947C07089540E00E94EF
:100F60007C070895CF9381110AC08FE40E942D025F
:100F70000E946F02C82FC0950E94540201C0CFEF9B
:100F80008C2FCF910895CF93811111C0683088F4D0
:100F9000C62F0E94B2078F3F69F0082E000C990BF4
:100FA00002C095958795CA95E2F7817003C08FEFCF
:100FB00001C08FEFCF9108955058BB27AA270E94F8
:100FC000F4070C940F090E94010938F00E940809E7
:100FD00020F039F49F3F19F426F40C94FE080EF427
:100FE000E095E7FB0C94F808E92F0E94200958F3DC
:100FF000BA17620773078407950720F079F4A6F5FE
:101000000C9442090EF4E0950B2EBA2FA02D0B0183
:10101000B90190010C01CA01A0011124FF27591B3D
:1010200099F0593F50F4503E68F11A16F040A22F43
:10103000232F342F4427585FF3CF469537952795B4
:10104000A795F0405395C9F77EF41F16BA0B620BB3
:10105000730B840BBAF09150A1F0FF0FBB1F661FFA
:10106000771F881FC2F70EC0BA0F621F731F841F3D
:1010700048F4879577956795B795F7959E3F08F063
:10108000B0CF9395880F08F09927EE0F9795879525
:1010900008950E945D080C940F090E94080958F0F9
:1010A0000E94010940F029F45F3F29F00C94F808F0
:1010B00051110C9443090C94FE080E94200968F316
:1010C0009923B1F3552391F3951B550BBB27AA2701
:1010D00062177307840738F09F5F5F4F220F331F3B
:1010E000441FAA1FA9F335D00E2E3AF0E0E832D003
:1010F00091505040E695001CCAF72BD0FE2F29D006
:10110000660F771F881FBB1F261737074807AB07D7
:10111000B0E809F0BB0B802DBF01FF2793585F4F4C
:101120003AF09E3F510578F00C94F8080C9443096E
:101130005F3FE4F3983ED4F3869577956795B7952E
:10114000F7959F5FC9F7880F911D9695879597F939
:101150000895E1E0660F771F881FBB1F62177307B2
:101160008407BA0720F0621B730B840BBA0BEE1FC7
:1011700088F7E0950895E89409C097FB3EF49095B0
:101180008095709561957F4F8F4F9F4F9923A9F060
:10119000F92F96E9BB279395F695879577956795EF
:1011A000B795F111F8CFFAF4BB0F11F460FF1BC033
:1011B0006F5F7F4F8F4F9F4F16C0882311F096E9C6
:1011C00011C0772321F09EE8872F762F05C0662374
:1011D00071F096E8862F70E060E02AF09A95660F2D
:1011E000771F881FDAF7880F9695879597F90895E6
:1011F00097F99F6780E870E060E008959FEF80ECCA
:10120000089500240A94161617061806090608956C
:1012100000240A9412161306140605060895092ED2
:101220000394000C11F4882352F0BB0F40F4BF2B41
:1012300011F460FF04C06F5F7F4F8F4F9F4F089581
:1012400057FD9058440F551F59F05F3F71F0479577
:10125000880F97FB991F61F09F3F79F0879508955C
:10126000121613061406551FF2CF4695F1DF08C07B
:10127000161617061806991FF1CF86957105610598
:1012800008940895E894BB2766277727CB0197F940
:1012900008950E94450A08F48FEF08950E9461099D
:1012A0000C940F090E94010938F00E94080920F0EF
:1012B000952311F00C94F8080C94FE0811240C945A
:1012C00043090E94200970F3959FC1F3950F50E0E8
:1012D000551F629FF001729FBB27F00DB11D639FE8
:1012E000AA27F00DB11DAA1F649F6627B00DA11D8E
:1012F000661F829F2227B00DA11D621F739FB00D34
:10130000A11D621F839FA00D611D221F749F3327A3
:10131000A00D611D231F849F600D211D822F762F3C
:101320006A2F11249F5750409AF0F1F088234AF019
:10133000EE0FFF1FBB1F661F771F881F9150504085
:10134000A9F79E3F510580F00C94F8080C944309CE
:101350005F3FE4F3983ED4F3869577956795B7950C
:10136000F795E7959F5FC1F7FE2B880F911D969526
:10137000879597F90895FA01EE0FFF1F3096210522
:101380003105A1F16115710561F48038BFE39B0758
:1013900049F168949038810561F08038BFEF9B0770
:1013A00041F099234AF5FF3FE1053105210519F187
:1013B000E8940894E795D901AA2329F4AB2FBE2F0E
:1013C000F85FD0F310C0FF5F70F4A695E0F7F7392F
:1013D00050F019F0FF3A38F49F779F930DD00F909B
:1013E00007FC9058089546F00C94FE0860E070E009
:1013F00080E89FE308954FE79F775F934F933F9374
:101400002F930E94DA0A2F913F914F915F910E9492
:101410004E090C94130A29F416F00C94F8080C9455
:1014200042090C94FE080E942809A8F39638A0F7F8
:1014300007F80F92E8942BE33AEA48EB5FE70E9443
:1014400064090F920F920F924DB75EB70F920E94F0
:10145000220BE8E6F0E00E94690A4F915F91EF915C
:10146000FF91E595EE1FFF1F49F0FE57E068442706
:10147000EE0F441FFA95E1F74195550B0E949C0A27
:101480000F9007FE0C94900A0895990F0008550FCD
:10149000AA0BE0E8FEEF16161706E807F907C0F0FA
:1014A00012161306E407F50798F0621B730B840B02
:1014B000950B39F40A2661F0232B242B252B21F4DC
:1014C00008950A2609F4A140A6958FEF811D811D7C
:1014D0000895DF93CF931F930F93FF92EF92DF92C4
:1014E0007B018C01689406C0DA2EEF010E9461092D
:1014F000FE01E894A5912591359145915591A6F36A
:10150000EF010E94F407FE019701A801DA9469F740
:10151000DF90EF90FF900F911F91CF91DF91089591
:101520009B01AC0160E070E080E89FE30C94490807
:101530000C94F8080C94560B0E942809D8F39923B0
:10154000C9F3940F511DA3F39150504094F059F0FA
:10155000882332F0660F771F881F91505040C1F7E3
:101560009E3F51052CF7880F911D9695879597F909
:1015700008955F3FACF0983E9CF0BB278695779529
:101580006795B79508F4B1609395C1F7BB0F58F70D
:1015900011F460FFE8CF6F5F7F4F8F4F9F4FE3CF16
:1015A0000C94430916F00C94560B0C94FE086894A6
:1015B0000C94F8080E942809A8F39923C1F3AEF30C
:1015C000DF93CF931F930F93FF92C92FDD278823BB
:1015D0002AF02197660F771F881FDAF720E030E0A6
:1015E00040E85FEB9FE3883920F0803E38F0219699
:1015F0008F770E94DD07E0E9F0E004C00E94DD077C
:10160000EDEBF0E00E94690A8B01BE01EC01FB2EBC
:101610006F5771097595771F880B990B0E94BD084C
:1016200028E132E741E35FE30E946109AF2D9801B1
:10163000AE01FF900F911F91CF91DF910E94F407AF
:101640000C940F09FA01DC01AA0FBB1F9B01AC012E
:10165000BF5728F4222733274427507820C0B7519A
:1016600090F4AB2F0024469537952795011CA39540
:10167000D2F3002071F0220F331F441FB395DAF329
:101680000ED00C94DC0761307105A0E88A07B946DA
:1016900030F49B01AC016627772788279078309635
:1016A00021F0208331834283538308959F3F31F09B
:1016B000915020F4879577956795B795880F911D80
:1016C0009695879597F90895EF920F931F93CF936F
:1016D000DF93E80147FD02C034E001C034E1042E8D
:1016E000000C550B57FF03C0519541955109E32E4E
:1016F000022F242FAE010E94B20BCE01DF91CF91B9
:101700001F910F91EF900895FB01DC018D910190E5
:1017100080190110D9F3990B0895BB274A3031F491
:10172000992322F4BDE2909581959F4F0C94990BDB
:10173000BB27FB015527AA27880F991FAA1FA417AB
:1017400010F0A41B83955051B9F7A05DAA3308F09F
:10175000A95DA193009779F7B111B1931192CB01D3
:101760000C94E40DA9E0B0E0E8EBFBE00C94FA0D7A
:101770006A01122FB02E2BE3201720F0FF24F394E0
:10178000F00E02C02CE3F22E0F2D27E0AE014F5FCA
:101790005F4F0E940C0DBC014981842F89708130FC
:1017A00031F0E1FC06C0E0FE06C090E205C09DE21B
:1017B00003C09BE201C090E05E2D507143FF3CC02E
:1017C000911102C083E001C084E0811718F4212F39
:1017D000281B01C020E051110BC0F601822F30E21E
:1017E000882319F031938150FBCFC20ED11C20E029
:1017F000992329F0D6019C93F60131966F01C60119
:101800000396E2FE0AC03EE4D6013C9341E4119601
:101810004C93119712963C9306C03EE6F601308336
:1018200041E641833283FC01322F40E2332309F445
:1018300042C041933150FACF42FF44C0911102C0DF
:1018400083E001C084E0811718F4212F281B01C018
:1018500020E051110BC0F601822F30E2882319F0ED
:1018600031938150FBCFC20ED11C20E0992329F087
:10187000D6019C93F60131966F01C6010396E2FEF4
:101880000BC039E4D6013C933EE411963C9311978A
:1018900036E412963C9307C039E6F60130833EE603
:1018A000318336E63283FC01322F40E2332319F0D4
:1018B00041933150FBCFFC01E20FF11D10828EEFFE
:1018C0009FEFA6C021E030E0911102C020E030E09F
:1018D000161617061CF4FB01319602C0E1E0F0E099
:1018E0002E0F3F1FBB2021F0EB2DF0E0319602C000
:1018F000E0E0F0E02E0F3F1FE12FF0E02E173F0752
:101900001CF4121B212F01C020E08E2D887159F488
:10191000F601822F30E2882319F031938150FBCFFA
:10192000C20ED11C20E0992329F0D6019C93F60128
:1019300031966F0151110BC0F601822F90E388237D
:1019400019F091938150FBCFC20ED11C20E00F2DD6
:10195000060F9A81342F307144FF03C0913309F48C
:101960000150101624F4093018F008E001C001E01D
:10197000AB0177FF02C040E050E0FB01E41BF50B38
:10198000A1E0B0E0AC0FBD1FEA0FFB1F8EE2A82E56
:101990004B01801A91080B2D10E01195019511094A
:1019A0004F3FBFEF5B0721F4D601AC9211966D015A
:1019B000641775072CF08416950614F4818101C014
:1019C00080E3415051093196D60111967D014017AF
:1019D000510724F0D6018C936701E2CF6417750795
:1019E00039F4963320F4953319F4311101C081E3B1
:1019F000F6018083F701822F90E2882319F09193FA
:101A00008150FBCFF701E20FF11D108280E090E0E2
:101A10002996ECE00C94160E283008F027E03327C6
:101A2000DA01990F311D87FD9160009661057105FE
:101A300039F432602E5F3D9330E32A95E1F7089543
:101A40009F3F30F080387105610509F03C5F3C5FD5
:101A50003D93913008F08068911DDF93CF931F93E1
:101A60000F93FF92EF92192F987F9695E92F9695F5
:101A70009695E90FFF27EC5BFE4F99273327EE245D
:101A8000FF24A701E70105900894079428F4360F76
:101A9000E71EF81E491F511D660F771F881F991FEB
:101AA0000694A1F70590079428F4E70EF81E491F45
:101AB000561FC11D770F881F991F661F0694A1F737
:101AC0000590079428F4F80E491F561FC71FD11D13
:101AD000880F991F661F771F0694A1F7059007943A
:101AE00020F4490F561FC71FD81F990F661F771F75
:101AF000881F0694A9F784911095177041F0D69528
:101B0000C79557954795F794E7941A95C1F7EAEE6C
:101B1000F0E0689415901591359165919591059037
:101B20007FE27395E118F10A430B560BC90BD009FC
:101B3000C0F7E10CF11E431F561FC91FD01D7EF4D4
:101B4000703311F48A95E6CFE894015030F0080F15
:101B50000AF40027021708F4202F2395022F7A3366
:101B600028F079E37D932A95E9F710C07D932A95B3
:101B700089F6069497956795379517951794E11808
:101B8000F10A430B560BC90BD00998F023957E91AF
:101B900073957A3308F070E37C932013B8F77E9145
:101BA00070617D9330F0839571E37D9370E32A95A6
:101BB000E1F71124EF90FF900F911F91CF91DF91EA
:101BC000992787FD90950895DC01FC01672F71919D
:101BD0007723E1F7329704C07C916D937083629113
:101BE000AE17BF07C8F308952F923F924F925F92AE
:101BF0006F927F928F929F92AF92BF92CF92DF921D
:101C0000EF92FF920F931F93CF93DF93CDB7DEB781
:101C1000CA1BDB0B0FB6F894DEBF0FBECDBF099415
:101C20002A88398848885F846E847D848C849B846C
:101C3000AA84B984C884DF80EE80FD800C811B817A
:101C4000AA81B981CE0FD11D0FB6F894DEBF0FBEA9
:0A1C5000CDBFED010895F894FFCF19
:101C5A00FFFF70706D0005008C005C1248656174AE
:101C6A00696E672073656E736F72005365636F6E7A
:101C7A006473206C6566743A002020427265617450
:101C8A0068616C79736572005F5F5F5F5F5F5F5F5A
:101C9A005F5F5F5F5F5F5F5F004D616465206279D0
:101CAA000050696F747220576F6A736100616E64C5
:101CBA00004D616369656A204B616D696E736B697A
:101CCA00005072657373203120746F2073746172CF
:101CDA007400746865206D6561737572656D656EF3
:101CEA0074005072657373203220746F20636865C4
:101CFA00636B006C617465737420726573756C74C0
:101D0A0073005072657373203320746F00636861C7
:101D1A006E67652074686520756E69742000506C62
:101D2A00656173652073656C65637420616E006F0D
:101D3A007074696F6E20796F752077616E740050C8
:101D4A006C6561736520626C6F7720696E746F00D1
:101D5A0073656E736F7220666F72200020736563FD
:101D6A0000436F6E63656E74726174696F6E206F83
:101D7A006600616C636F686F6C3A0070706D006D1D
:101D8A00672F4C0050726576696F757320726573A0
:101D9A00756C74733A00312E202000322E202000F8
:101DAA00556E6974206368616E6765640049746082
:101DBA0073206D672F4C206E6F7700497460732013
:0E1DCA0070706D206E6F770070706D200000DD
:00000001FF
